:10000000D82D002089020000850200008702000030
:1000100000000000000000000000000000000000E0
:100020000000000000000000000000008502000049
:100030000000000000000000850200007D020000BA
:100040008502000085020000850200008502000094
:100050008502000085020000850200008502000084
:100060008502000085020000850200008502000074
:100070008502000085020000850200008502000064
:100080008502000085020000850200008502000054
:100090008502000000000000000000008502000052
:1000A0008502000085020000850200008502000034
:1000B00000000000074B1A00197DC907FCD520215C
:1000C000FF31198304494008D8611980137DDB078B
:1000D000FCD570470040004102A5FFFF10B50400A9
:1000E000044B9C4200D910BD20000134FFF7E2FF11
:1000F000FF34F5E7FFFF0300002330B59A4200D13B
:1001000030BD9C000D5901330551F7E7F0B580254E
:10011000104B114E5C68114FAC435C60002A00D15B
:10012000F0BD1400102A00D91024121B1E801D7D62
:10013000ED07FCD5A400A44600240D590551043454
:100140006445FAD1001909191F801C7DE407FCD50C
:10015000E4E7C0460040004144A5FFFF04A5FFFFBF
:10016000802270B5002304000D005200E958E058C9
:10017000814203D104339342F8D170BD2000FFF7D0
:1001800099FF402229002000FFF7C0FFF5E700009B
:10019000024A53785BB2002BFBDB7047000C004037
:1001A00010230249CA681A42FCD070470008004078
:1001B0001E21F8B50226254A254C5368254D8B4350
:1001C00033435360A660FFF7E3FF234B6360FFF701
:1001D000DFFFAE84FFF7E4FF204B1B689B0E3F2B35
:1001E00000D1203B002602271D4A9B0213431D4AD3
:1001F000EA62AB62AE84FFF7D3FF1B4BAB84FFF721
:10020000CFFFAB8C3B43AB84FFF7CAFF3F22638831
:10021000934380221F4367806388D2011343638026
:10022000A660FFF7B5FF114B6360FFF7B1FFC02178
:100230000F4A104B10485360036A09061B021B0A41
:100240000B430362072396601360F8BD0040004132
:10025000000C0040000800400600010024608000FF
:10026000FF01000080BB0A1C2405000000070300FA
:1002700010E000E0E703000000ED00E010B500F042
:10028000EDF810BDFEE7FEE71E4A1F4B70B51F4993
:100290009A4232D100211E4B1E4A934230D3FF2294
:1002A0001D4B032193431D4A0C2593600222082411
:1002B00030261B4B1B485A62C3788B431343C370D1
:1002C000C378AB432343C370174B987BB0430600FE
:1002D000202030439873987BA84304439C73987BF9
:1002E000884302439A738023104A51680B4353603A
:1002F00000F07EFEFEE701CA01C38B42FBD3C9E7D3
:1003000002C3CAE79C1C000000000020CC010020B2
:10031000CC010020D40D00200000000000ED00E022
:10032000FC70004100500041004800410040004185
:10033000F0B5124E7388002B17D108241A0292B21E
:1003400015B2AC4667465500AAB2002F02DA0C4A35
:100350005540AAB2013CA4B2002CF1D15C0032534A
:100360008022013352009342E7D10B0A43405B00E5
:10037000F05A0902484080B2F0BDC046CC010020CE
:100380002110000001230002984200D87047C046A7
:100390000133F9E770B505001C2400200F260B007F
:1003A000E3403340002A09D1002B07D1002C0BD0A9
:1003B000002809D1043C231DF1D170BD092B03DDB8
:1003C00037332B540130F5E73033FAE7054B064A53
:1003D0001A60BFF34F8F054B054ADA60BFF34F8FAA
:1003E000FEE7C046FC7F0020EF6926F000ED00E04C
:1003F0000400FA0510B50B4A1368002B0ED10A4908
:1004000011600A490A6801320A600949086800282F
:1004100006D0824204D30B60FFF7D8FF013B136084
:1004200010BDC046D4030020DC050000000A0020F7
:10043000040A0020054B064A1A60BFF34F8F054B94
:10044000054ADA60BFF34F8FFEE7C046FC7F00200D
:10045000EF6916F000ED00E00400FA0510B5194A46
:1004600019491368013313600A68002A0CD0174831
:100470001018834203D180241548240584619342D7
:1004800001D100230B6010BD1248DBB20278002BB3
:1004900010D180210E4B0905996111000A39C9B2AA
:1004A0000D4BF02902D91978494219701B78D218DE
:1004B0000270E8E79342E6D18022054B12055A61AB
:1004C000E1E7C046CC030020D003002018FCFFFF6A
:1004D000004400410100002000000020074B084AB2
:1004E0001B681168994207D2FA21C9005B18136092
:1004F0008022044B12055A617047C046CC0300208D
:10050000D0030020004400418022024B12059A6073
:100510009A6170470044004170470000202370B585
:10052000354A0F20D1690B43D361012233490B783F
:1005300013430B70324B19788143197006211C78D4
:10054000214319702F490C7822430A701A7802400F
:100550001A70602219780A431A702B4B2B4A5A8062
:100560005A78D209FCD12A4B013219780A431A7001
:100570009A78D207FCD41F2026490A68520B024001
:10058000824200D105221C8D234D024092012C4055
:1005900022431A850A68920C02401F2A00D1023AAF
:1005A0001F24188D2240A043024307201A850A68A1
:1005B000D20D0240824200D10322198D0240174819
:1005C000120301400A437F211A851A7814480A4011
:1005D0001A70042219780A430C211A7058621A8979
:1005E0008A431A811A890B398A431A818022002191
:1005F000520001F03EFA70BD000400405844004132
:100600003C44004159440041000C004006400000B9
:1006100000500041246080003FF8FFFFFF8FFFFF84
:100620004C0A0020F7B51C00314B06005B6A0F0036
:1006300015000193002C05D1443454432D4BE4188C
:10064000FFF7D8FE63782278934210D2D51ABD42C4
:1006500000D93D00002E08D0211DC9182A00300005
:1006600001F0FEF963785B1963702800FEBD019B01
:10067000A1786A01D318002911D1211D1960596888
:100680001D48890B890359605968014059601B490D
:10069000551840212879014329710121A17014497D
:1006A00000255118019116495218127AD207DCD54B
:1006B0005D68A278EDB22570022A04D11968201D68
:1006C0002A0001F0CDF9BD4200D93D00002E0CD02A
:1006D0006570211D2A00300001F0C2F90122019B42
:1006E000FF331A720023A370BFE76670F6E7C046B7
:1006F000005000414C0B0020FF3F00F00051004132
:10070000FF50004110B50023FFF78CFF10BDF8B576
:1007100005000C0016001F00002C00D1F8BD2100C0
:1007200028003B003200FFF77DFF241A2D18F3E765
:10073000F8B50E001F4955014C6A2C19002B1BD02F
:1007400063695B005B08636120616369B2049B0BB2
:10075000920C9B03134363616369174A1748134064
:1007600063612A18022380211500137291712A7A7D
:100770001A42FCD03000F8BD012163695B005B0FB9
:1007800003339940B14208D8043A531E9A41636931
:10079000D2075B005B081343D5E744275743084A59
:1007A0000437BF1801003200380001F059F9380051
:1007B000CAE7C04600500041FF3F00F0FF50004133
:1007C0004C0B002010B50023FFF7B2FF10BD000056
:1007D00010B5054B1B888B4200D90B000022190075
:1007E000FFF7F0FF10BDC046FA03002007B5002157
:1007F0006B460A00D81D0170FFF7E4FF07BD00003B
:10080000F0B59BB0FFF7F6FD0822C04CA38B1A4051
:100810000392039BBE4A002B2ED00823A383802380
:1008200011214020A372C024517090715371B94BB3
:10083000B94D5968A4052940214359605969294097
:100840000C43B6495C611960B549B64C19615968E9
:100850000C4080218902214359605968890B890322
:10086000596050710022B04B1A70AF4B1878431E7C
:100870009841C0B21BB0F0BD1021137A8C460B42D8
:10088000F3D01172A949A94D8979A84B0191A749C3
:100890000198CF799B883902014309B202916946D8
:1008A0000989A2480091067AC07AAD7A00022843ED
:1008B0009E499F4D497A2880402509020E439D4854
:1008C00036B2B1B25571834200D1B4E13AD8812039
:1008D0004000834200D1C3E117D8822B00D191E1BF
:1008E00008D8802B00D188E1812B00D185E120231D
:1008F0009371BAE7802149008B42F8D00221FF3181
:100900008B42F4D1FFF772FFAFE78B48834204D0EC
:100910000BD8A221FF318B42E9D10021082208A87F
:1009200001F0A7F8082108A8CDE0C020800083428C
:10093000DDD0E7D840388342D9D10729D7D1A331B8
:100940007E48C0E07E498B42DCD000D99AE07D49E8
:100950008B4214D801398B4200D3ADE07A498B42E7
:10096000DBD06031FF318B42C1D1FFF73FFF8023E5
:10097000029A5B421343654ADBB2937275E78821A2
:10098000694809018B4200D1A2E180318B42AED18E
:10099000029B30270370FFF729FFA02303225B008F
:1009A000E254C0225B4B5C49586C920508401043EE
:1009B00058644620FF3025546448802618649020EF
:1009C00040002754586B0840104358639220400061
:1009D00026545F4880261863B02040002554586F85
:1009E00008405867B2204000265403263C30265465
:1009F000FC3884469C44604606680E4016430660F8
:100A0000A626FF36A5551E005248A0363060C026E7
:100A10007600A7551F0094373E6880200E4016438D
:100A20003E60C2267600A0551E004B4F90363760C0
:100A3000E02644277600A7550436A555A055C420C6
:100A400084469C44604606680E4016430660D420E7
:100A500084469C44604606680E4016430660F026B5
:100A600080207600A7550436A555A0551C00E43417
:100A70002068F433084010432060186801400A439E
:100A80001A60F2E635498B4200D13BE705D834497C
:100A90008B4200D136E7334932E733498B4200D1EC
:100AA00030E732498B4200D10FE131498B4200D00F
:100AB0001DE708212F4806E0802300995B0099423A
:100AC00004D112212C48FFF783FECEE68023009943
:100AD0009B00994202D199212848F4E7032F7CD149
:100AE000019B032B00D902E708AC4822002120001B
:100AF00000F0BFFF019B6770002B43D104332370CC
:100B00001F4B638021782000DDE7C0460050004184
:100B1000FF5000414C0A0020FFFFFF8F0C0A00200D
:100B2000500B0020FF3F00F0D8030020080A0020EF
:100B3000FA03002002030000A1020000F0000020E0
:100B40002109000081060000A1030000D80B00204D
:100B5000940B0020A40C0020600C00202120000039
:100B6000210A0000210B000021220000A1FE00004C
:100B7000A1210000E8000020A01A00004000002091
:100B80000904000004AE3200524B23CB23C20025DF
:100B90002F001B681360AB004F4AF358D019196837
:100BA0000122FFF7F7FB01353F18042DF3D1002395
:100BB000494AD355494B4A4A9B799B009D58280086
:100BC00000F05FFF23000130400020702A780233DC
:100BD0000135002A96D01A70F8E70F2F02D139217B
:100BE000404870E7212F02D109213F486BE7222FAF
:100BF00000D07CE621213D4865E7002308A803805A
:100C0000022160E7039B08A803800823194200D053
:100C10006DE6073319400831413349011E4205D0C2
:100C2000334BC9188B799B06DB0FE8E7304BC918AB
:100C30008B79DB06F8E70F230B4000D157E608203D
:100C400001400098084300D051E60833284A5B0170
:100C50009B18320602D520225A7153E66246FBE702
:100C60000F230B4000D142E60820014000980843C2
:100C700000D03CE65B01320613D51E491C4A9A1887
:100C80005B182021D879084200D13BE659711B7AC4
:100C90002B4200D136E613004022FF331A723E3A4F
:100CA000DAE760461349124A9A185B18D97901426B
:100CB00000D127E6202158711B7A0B4200D121E692
:100CC0001300FF3319720122C6E7002308A803802E
:100CD0000121F8E6901A0000D9030020080A00203C
:100CE000F01A000004000020DC000020B41A00000C
:100CF00000500041FF50004110B5FFF70FFC0022EB
:100D0000034B1A700223034A11780B43137010BD72
:100D1000D80300200050004110B50C000122FFF75D
:100D200051FD200010BD10B50C000122FFF74AFD57
:100D3000200010BD70B504000D00FFF761FD030039
:100D40000020834204D0022229002000FFF7DAFCB1
:100D500070BD70B505000C00FFF752FD002807D0EC
:100D60000023022221002800FFF7D1FC200070BDE3
:100D70000400FBE730B500232025934200DB30BDA3
:100D80000C78002C03D00131C4540133F5E72C005A
:100D9000FAE70000F8B580220C000500920000215F
:100DA000200000F066FE002D0CD13E224B492000B1
:100DB00000F056FEFF2355225B00E254484B921888
:100DC000E254F8BD7E2D24D86B1E3E2B00D93F3B4C
:100DD000002B11D01B02581C424D434EFF301A1FEE
:100DE000591CAA4203D8B34211D08BB223800B0006
:100DF00002348142F3D1E4E7F0222100FF20227087
:100E00000A31621C9142E5D010700132FAE7374B8B
:100E1000ECE7822D31D87F2DD3D130490B222B31F5
:100E20002000FFF7A7FF80272823314EE3727D3D86
:100E30003F03F36820343800002B02D0180000F084
:100E400020FE030A6377030C2077A377000E2B0A9A
:100E5000E077A576E3760B2231002000FFF78AFFCA
:100E600067224D2301355242ADB22274637422765B
:100E700063761036052DDCD1A3E72B00833B012BD5
:100E80000CD81B4A1B01D318DD68280000F0F9FDBF
:100E900029000200200000F0E3FD92E7154B853D9C
:100EA0002902994200D98CE7134B144A2360144B52
:100EB0006360FE235B00E2508023DB00A36180239C
:100EC000A06880229B0103432000A3600D4B5200C9
:100ED0006561E1602261E3612030DCE7001B000016
:100EE000FF010000FF03000003040000FFFF0000FB
:100EF000BC1B0000FFFF03005546320A306FB10AE9
:100F000057515D9E882BED6870B516001D000A686C
:100F10002E4B0C009A4251D12D4B4A689A424DD12A
:100F2000FE2252002B4B8A589A4247D18B689A0472
:100F300003D5294AC969914240D1DB0711D48023E6
:100F400022695B009A420CD1E068C3B2002B08D141
:100F5000224B234AC318934203D821002031FFF7C4
:100F6000FFF8002D2BD0A369002B28D029681D4A3B
:100F70008B4206D0934201D8002901D001235B4265
:100F80002B606369934219D80721012219408A40D6
:100F9000DB08EB18197AD2B20A4204D168680A4316
:100FA00001301A7268606A682B689A4206D3002E74
:100FB00004D10D4B1B681E330C4A136070BD002E0C
:100FC000FCD1094B1B682D33FF33F5E75546320A38
:100FD00057515D9E306FB10A882BED6800E0FFFF2E
:100FE000FFDF030063040000000A0020040A002061
:100FF000F8B53A4DAB68002B00D0FEE7FFF784FA56
:10100000374B1E68374BF218F8239B029A4213D8CD
:10101000354B364A1968364C364B914232D11978E5
:10102000354AC90702D4216891422BD0334B226044
:101030001B68334A32331360FFF7BAF8BFF35F8F90
:1010400062B6FFF759FE4020FFF766FA80270A23B1
:1010500001262C4DFF012B70FFF7D2FB2A4C0028F4
:101060000AD02378DBB2002B05D1254A3800136063
:10107000FFF752FA2E7026702378002B24D000F050
:10108000BDFAFCE71B78DB07DB0F0DD000238022C5
:1010900023601E4B12055A6180239B011A6882F35C
:1010A0000888AB603047C7E72168194A914201D1EF
:1010B0002360C1E72168104B9942E7D0FA202260F3
:1010C0004000FFF75FF9E1E72378002BC4D1FF333D
:1010D000C046013B002BFBD1BEE7C04600ED00E05F
:1010E0000420000000E0FFFFB42000007CB0EE8789
:1010F000FC7F002038040040EF6926F0000A002041
:10110000040A002000000020FC03002000440041ED
:10111000EF6916F010B5054C12220021200000F0F6
:10112000A8FCF0232370E63BE37110BD3B060020D2
:10113000F8B505000E0017000024AB68A34200D8E4
:10114000F8BD8021AA7833008900E868FFF7DFFA4C
:1011500080235B01E01801223B00E968FFF7D4FE21
:101160000134EAE770B5130006000C0015000020FA
:101170000A000121FFF756FA0023984206D02B00FF
:1011800022001F213000FFF74DFA0123180070BD27
:1011900010B504220D210248FFF714FB10BDC04614
:1011A0009A01002010B50B480B49427903791202CD
:1011B0001A4383791B041A43C3791B0613431A0A83
:1011C0000B714A711A0C1B0E8A71CB71FFF7E0FF8D
:1011D00010BDC0461C0600209A01002070B50422F4
:1011E0000D00FFF7EFFA164C85420FD0FFF792FF84
:1011F000012304222373134B9A700022DA701A71B0
:101200005A719A711A735A73FFF7CCFFFFF782FF76
:1012100000232373637A217A1B020B43A17A09040A
:101220000B43E17A09061943491B0B0A21726372C9
:101230000B0C090EA372E172FFF7B4FF70BDC0463C
:101240009A0100203B06002070B5184C14220500BE
:101250000021200000F00DFC154A002D1FD02100B8
:101260000823D07D08313F26527C32401C2A01D011
:10127000B24205D10F4A0C330A800522DBB2CA7094
:10128000191C834200D9011CC9B2002D0BD0023BAE
:101290009BB21B0223802000FFF7A0FF70BDD07C13
:1012A000211D0423DFE7013B2370F4E70006002043
:1012B0001C0600201C0A0000F0B5070000242B4B80
:1012C00085B0597C03AAD170997C9170D97C5170FA
:1012D000197D1170997D02AAD170DB7D93705388BE
:1012E0000193019BA34208D8FFF714FF0022204B73
:1012F0001A73FFF757FF05B0F0BDFFF781FA00281A
:10130000F9D0039B1B4EE518002F1FD03100280099
:10131000FFF740FD8021042289003000FFF752FAD8
:10132000134A0134517A137A09021943937A1B0440
:101330001943D37A1B060B430F495B18190A137222
:101340005172190C1B0E9172D372CAE780213B00B7
:10135000300005228900FFF7DAF9084B3A00310026
:101360002800FFF7D1FDFFF7B9F8D9E71C060020E8
:101370009A0100200004002000FEFFFF500600201C
:10138000F0B585B000F03CFB454E00220521300051
:10139000FFF7E8FE002858D0737A357A1B022B43FA
:1013A000B57A404C2D042B43F57A00272D061D43BA
:1013B0002B0A63722B0CA3722B0E2572E372F37B44
:1013C0001E2B1BD021D8122B41D013D8BB4215D0D5
:1013D000032B31D0FFF79EFE012305222373324BEE
:1013E0009A700022DA701A715A719A711A73203247
:1013F0005A7307E01A2B39D01B2BEBD1FFF78AFE6B
:1014000000232373FFF7CEFE1FE0282B34D00BD828
:10141000232B35D0252BDDD1802324489B0243602C
:10142000234B082103600EE02F2BE7D05A2B21D04D
:101430002A2BCFD1380020E0F37C191C122B00D9C5
:1014400012211948C9B2FFF7C9FE05B0F0BD194C09
:101450001949200018220830FFF78CFCF37C191C76
:10146000242B00D92421C9B22000ECE73800FFF773
:10147000EBFEEAE70120FAE70120FFF71DFFE4E7B2
:101480000C260E49320001A800F0EAFAB54203D951
:1014900026726772A772E7720C2101A8D3E7C046D3
:1014A0001C0600209A0100203B06002014060020A4
:1014B00000003E7FA8010020DE1A0000551C00003D
:1014C00072B6BFF35F8F044B044A9A829A8300225C
:1014D000034B9A607047C04600500041FF03000074
:1014E00000ED00E0F0B5C7B00FAF0400FFF7E8FF74
:1014F00044220021380000F0BCFA9822002120A8E4
:1015000000F0B7FA02230F21BB70A37862780B407A
:10151000A37063680A400893002307AD264E6270EB
:1015200009932B73012220ABE16824480796FFF74B
:10153000EBFC20AA39002000FFF7FAFD62780123B6
:101540000D212800FFF7F4F80196002607ADA178D9
:101550003A002800FFF706FE002823D0019B03AEC7
:1015600003936B687360AB68B36000233373EB7BEA
:10157000002B10D02A2B1CD1ED8A02AB6DBA5D80F6
:10158000ADB2A56020AA39002000FFF7D1FDB368F5
:101590006D025D1BB560627801230D213000FFF7FD
:1015A000C7F8D2E7064B9E4201D9FEF70FFF01367E
:1015B000CCE7FEF73FFFEEE755534253FF0F000025
:1015C000F824010030B5EFF30883054C236003686D
:1015D00083F308884568A847236883F3088830BDEB
:1015E000C80D002007B5010001226846FEF7D2FEB3
:1015F00008216846FFF790FB07BD0000F7B57A2386
:101600000022804C804922600B7000920193FFF70A
:10161000B7FE7E4D40212800FFF78CFB7C4B186005
:10162000009B2B54002801D0FEF758FF794B009AFD
:101630001D60794B1A607848754B02681F68BA4282
:10164000E5D2744D29680B78FF2B36D0734E232BCF
:1016500000D0B3E06C4B1B78532B33D1336801328D
:10166000013102602960BA1A9A4200D91A006C4D01
:1016700020682A6000F0F4F9674829680368654A21
:10168000CB18013B036010684B1EC3181360634BFB
:10169000644D1B682970C9B28B4203D9591A20685E
:1016A000FFF757FBC046584B019A1A705B4B009AE4
:1016B0001A60584A136801331360574A136801339C
:1016C0001360B8E7522B04D131682068FFF72BFB79
:1016D000E9E74F2B03D1336822681370E3E7482B07
:1016E00003D1336822681380DDE7572B0AD14E4BB4
:1016F00022689A4202D14D48FEF70EFF23683268F5
:101700001A60D0E76F2B04D101212068FFF704FB9A
:10171000C9E7682B05D1022123681B88336030009C
:10172000F4E7772B04D1236804211B683360F6E7C4
:10173000472B09D13068FFF745FF3D4B1B78002B45
:10174000B1D001213B48E1E7542BACD04E2BAAD0BD
:10175000562B02D12A213848D8E7582B05D13068BA
:10176000FEF7BCFC03213548D0E7592B0DD1326878
:101770002068334B002A03D1186003213148C5E7A4
:1017800092081968FEF7C2FCF7E75A2B8BD137682D
:1017900000262568EF19AF4209D101212A48FFF739
:1017A000BBFA3000FFF71EFF03212848AEE7287878
:1017B0003100FEF7BDFD01350600ECE71A00303AB6
:1017C000D1B2092904D833681B011343336070E791
:1017D0001A00413A052A03D83268373B1201F4E770
:1017E0001A00613A052A03D83268573B1201ECE728
:1017F0002C2B03D133682360009BE7E7024A137068
:10180000FAE7C046C40D0020780D0020800D0020AE
:10181000700D0020740D00207C0D0020CC0D0020E8
:10182000D00D00206C0D00200CED00E040004000C9
:10183000E80600208B1C0000611C00008D1C0000CD
:10184000EC060020911C0000951C0000971C000075
:10185000F8B50300473304001A7840210300002044
:10186000FEF7E0FE002801D10020F8BD0023257915
:1018700023706BB2002BF7DB3F272000A61DF38FF0
:101880002F404830C018611D3A0000F0E9F83F23AE
:10189000F08F9D43C01980B2002D01D1F087E3E79E
:1018A0000023F387E1E7F0B506000C001F0093B0BA
:1018B00001923F25AC4203DC2500002F00D14037C8
:1018C0003B0002AA2B43137002AB31002A00581CC4
:1018D00000F0C6F86B4640211A7902A80123FEF7F2
:1018E00027FF7619641BE4D113B0F0BD030010B5D7
:1018F00047331A78043148300023FFF7D4FF10BD76
:10190000F7B50400FFF7A4FF002841D023004833B7
:101910009A88A06C1A80002201385A80082865D85D
:1019200000F094F815052327252A473E3700314E4D
:10193000300000F0A6F80500200031004C302A00ED
:1019400000F08EF829002000FFF7D0FF20E00123EF
:10195000E364FF3323658023DB006365A0235B0022
:10196000A365254B1421E365EDE7FEF72FFD00216C
:10197000E9E7FEF75FFDFAE720000021FFF7B6FF79
:10198000206D1E4B984203D921005431FEF7E8FB2D
:10199000F7BD2100626D5831206DFEF7ADFBE6E723
:1019A0002000656D216D4C302A00FEF7A5FBA900D3
:1019B000C9E70027236D666D5D1CFF35BE4201DC63
:1019C0007100C0E700216B1EFF3B5A1C1878019282
:1019D000FEF7AEFC019B0100AB42F6D123007A007A
:1019E0004C33013598520137FF35E7E701225A8021
:1019F000BDE7C046EC1B0000882BED68FF1F000010
:101A000007480622030010B547331A70FFF778FF26
:101A100004480722030047331A70FFF771FF10BD17
:101A2000F00600207808002010B5E2B00400FFF7AF
:101A300047FDC42200215200684600F01AF84723EF
:101A40006B441C706846FFF75BFFFBE702B471460E
:101A500049084900095C49008E4402BC7047C046F1
:101A6000002310B59A4200D110BDCC5CC4540133A0
:101A7000F8E703001218934200D170471970013340
:101A8000F9E70023C25C0133002AFBD1581E7047DE
:101A90000CA0800040A0800044A0800048A08000EE
:101AA00012011002EF0201404F1B2A000142010205
:101AB000030100000697FF0901A101150026FF00A0
:101AC000750895400901810295400901910295012F
:101AD0000901B102C0537061726B46756E005341CB
:101AE0004D443231204C6F526153657269616C0014
:101AF00000000000D51A0000DE1A0000D903002003
:101B0000EB3C905546322055463220000201010040
:101B10000240007E3EF03F00010001000000000096
:101B20000000000000002942004200535041524B87
:101B300046554E00000046415431362020203C21BD
:101B4000646F63747970652068746D6C3E0A3C68DC
:101B5000746D6C3E3C626F64793E3C736372697075
:101B6000743E0A6C6F636174696F6E2E7265706C7F
:101B7000616365282268747470733A2F2F777777C2
:101B80002E737061726B66756E2E636F6D2F70723F
:101B90006F64756374732F313933313122293B0AF5
:101BA0003C2F7363726970743E3C2F626F64793EA0
:101BB0003C2F68746D6C3E0A00000000494E464F91
:101BC0005F55463254585400EC1B0000494E4445C2
:101BD0005820202048544D003E1B000043555252CF
:101BE000454E542055463200000000005546322034
:101BF000426F6F746C6F616465722076332E342E81
:101C0000302D37302D6762333933636231205346CC
:101C10004857524F0D0A4D6F64656C3A2053414D41
:101C2000443231204C6F526153657269616C0D0A08
:101C3000426F6172642D49443A2053414D44323120
:101C4000473138412D4C6F526153657269616C2D7B
:101C500076310D0A000000000800003E80020002FC
:101C60000076312E31205B41726475696E6F3A588F
:101C7000595A5D20466562202031203230323220B0
:101C800031353A31333A32350A0D000600580A0D23
:101C900000590A0D005A00230A0D000001C8000077
:101CA000050F3900021810050038B60834A909A03C
:101CB000478BFDA0768815B665000101001C100554
:101CC00000DF60DDD88945C74C9CD2659D9E648A43
:101CD0009F00000306AA000200000000090299000C
:101CE00005010080FA080B0002020201000904004D
:101CF000000102020100052400100104240206056F
:101D0000240600010524010301070583030800FFE1
:101D100009040100020A00000007058102400000DA
:101D200007050202400000090402000208065000F4
:101D30000705840240000007050502400000090471
:101D4000030002030000000921000100012221001C
:101D5000070586034000010705060340000109044A
:101D6000040002FF2A010007058703400001070560
:101D70000703400001000000090403000203000003
:101D80000300000000C20100000008000A0000007B
:101D900000000306AA00080002000400A0001400CE
:101DA000030057494E555342000000000000000058
:101DB00000008400040007002A004400650076004B
:101DC00069006300650049006E00740065007200E0
:101DD000660061006300650047005500490044004B
:101DE0007300000050007B003900320043004500C2
:101DF00036003400360032002D0039004300370031
:101E000037002D0034003600460045002D00390013
:101E10003300330042002D00330031004300420004
:101E200039004300350042004200330042003900CF
:101E30007D000000000055534253000000000000E8
:101E400000000000008002022000000000000000EE
:101E50000000000000000000000000000000000082
:101E600000000000312E3030FFFFFFFFFFFFFFFFBB
:101E7000FFFFFFFFFFFFFFFFFFFFFFFFFFFFFFFF72
:101E8000FFFFFFFFFFFFFFFFFFFFFFFFFFFFFFFF62
:101E9000FFFFFFFFFFFFFFFFFFFFFFFFFFFFFFFF52
:101EA000FFFFFFFFFFFFFFFFFFFFFFFFFFFFFFFF42
:101EB000FFFFFFFFFFFFFFFFFFFFFFFFFFFFFFFF32
:101EC000FFFFFFFFFFFFFFFFFFFFFFFFFFFFFFFF22
:101ED000FFFFFFFFFFFFFFFFFFFFFFFFFFFFFFFF12
:101EE000FFFFFFFFFFFFFFFFFFFFFFFFFFFFFFFF02
:101EF000FFFFFFFFFFFFFFFFFFFFFFFFFFFFFFFFF2
:101F0000FFFFFFFFFFFFFFFFFFFFFFFFFFFFFFFFE1
:101F1000FFFFFFFFFFFFFFFFFFFFFFFFFFFFFFFFD1
:101F2000FFFFFFFFFFFFFFFFFFFFFFFFFFFFFFFFC1
:101F3000FFFFFFFFFFFFFFFFFFFFFFFFFFFFFFFFB1
:101F4000FFFFFFFFFFFFFFFFFFFFFFFFFFFFFFFFA1
:101F5000FFFFFFFFFFFFFFFFFFFFFFFFFFFFFFFF91
:101F6000FFFFFFFFFFFFFFFFFFFFFFFFFFFFFFFF81
:101F7000FFFFFFFFFFFFFFFFFFFFFFFFFFFFFFFF71
:101F8000FFFFFFFFFFFFFFFFFFFFFFFFFFFFFFFF61
:101F9000FFFFFFFFFFFFFFFFFFFFFFFFFFFFFFFF51
:101FA000FFFFFFFFFFFFFFFFFFFFFFFFFFFFFFFF41
:101FB000FFFFFFFFFFFFFFFFFFFFFFFFFFFFFFFF31
:101FC000FFFFFFFFFFFFFFFFFFFFFFFFFFFFFFFF21
:101FD000FFFFFFFFFFFFFFFFFFFFFFFFFFFFFFFF11
:101FE000FFFFFFFFFFFFFFFFFFFFFFFFFFFFFFFF01
:101FF00000000000291A0000E5140000EC1B00009E
:1020000000800020A19E0000899E0000899E0000A3
:1020100000000000000000000000000000000000C0
:10202000000000000000000000000000899E000089
:102030000000000000000000899E0000F59E0000E6
:10204000899E0000899E00002D870000899E000067
:102050004D9E0000899E0000899E00008D9E00001C
:10206000899E00001D880000899E0000899E000056
:10207000899E0000899E00002D880000899E000036
:10208000899E0000899E0000899E0000899E0000B4
:10209000D5AA0000899E0000899E0000899E00004C
:1020A000899E0000899E0000899E0000899E000094
:1020B0000000000010B5064C2378002B07D1054B1B
:1020C000002B02D0044800E000BF0123237010BDA4
:1020D0004003002000000000B0430100044B10B595
:1020E000002B03D00349044800E000BF10BDC046E8
:1020F0000000000044030020B04301000122014B16
:102100001A7070477A3200200122014B1A70704712
:10211000A800002030B5094D094CAB685B035B0F8C
:102120009B001C590460AB6801619BB24360634330
:10213000A4008360C460426130BDC04600400041DD
:1021400000360100F7B5802644690191E51C1A4C60
:10215000AD0867683E436660002D2BD0174E268081
:10216000267DF107FCD52E000768A91BBF088F420A
:1021700019D9002E17D0FF2117788B433B43104904
:1021800057780B403F023B439778013E39040D4F8F
:102190001F40D378BFB20F431B0601993B4308C1D0
:1021A00001910432E0E7084D2580257DE907FCD543
:1021B0003500D1E7F7BDC0460040004144A5FFFF10
:1021C000FF00FFFFFFFF00FF04A5FFFF130010B596
:1021D000426918000DF07BF810BD0000044B054A61
:1021E0004908D9611A801A7DD207FCD57047C046CC
:1021F0000040004102A5FFFF70B504000D0016006D
:10220000E36829002000B34205D2FFF7E7FFE36847
:10221000ED18F61AF4E7FFF7E1FF70BDF8B5812578
:102220000400071D0A483A000169ED00FFF7CEFFE0
:10223000084E6359B34206D08022FF21D2003800F5
:102240000DF061F866510123034AA3542370F8BDD1
:10225000680D0020EDDEEDFE04040000F8B510234B
:102260007E4A0224137005227D4B26201A707D4B76
:1022700002321A707C4B03321A707C4B073A1C7086
:102280007B4B7C4F1A707C4B03321A701E237B4AA7
:102290007B4D13707B4B7C4A18701F2313700C3BD3
:1022A0007A4A3B70023B2B70013313700822784B43
:1022B00001211A700923774A1370774A053B13707E
:1022C000764E0A33337008F037F86E4B01211878D8
:1022D00008F07EF8694B2100187808F02DF828786E
:1022E000012108F029F82878002108F071F8674BDF
:1022F0000121187808F020F8644B0021187808F0C4
:1023000067F8634B0121187808F016F8604B00213C
:10231000187808F05DF85F4B0121187808F00CF888
:102320005C4B0021187808F053F8574B01211878BE
:1023300008F002F8544B0021187808F049F8387872
:10234000012107F0F9FF3878002108F041F8524BDD
:102350002100187807F0F0FF3078012107F0ECFF3A
:102360003078012108F034F8082500243B4B013D6A
:10237000187807F07BFF2418002DF7D10723E0170A
:1023800018400019C0100CF0B5FD454A454B0BF044
:10239000A5FF0022444B0BF0A1FF0CF069FE0CF0EE
:1023A00015FE424A424B06000F000AF0B1F8414CBC
:1023B000002808D03900404A404B30000AF094F819
:1023C0003F49002800D13F4920000DF03DFD032585
:1023D00001242B4F2100387807F0FAFF2B4B210006
:1023E000187807F0F5FF2A4B2100187807F0F0FF66
:1023F000284B2100187807F0EBFF234B21001878B9
:1024000007F0E6FF1B4E2100307807F0E1FF322095
:1024100007F0B4FD3878002107F0DAFF1B4B0021EC
:10242000187807F0D5FF1A4B0021187807F0D0FF75
:10243000184B0021187807F0CBFF134B00211878B8
:1024400007F0C6FF3078002107F0C2FF013D3220BF
:1024500007F094FD002DBCD1F8BDC0464C00002013
:102460004D0000204F000020500000205C000020A4
:102470005800002057000020550000204E0000208A
:1024800051000020560000205B0000205200002078
:102490005300002054000020590000205A00002062
:1024A0006666666666660A400000503F04560E2D5A
:1024B000B29DF73FF610002077BE9F1A2FDDFC3F3C
:1024C0005D2B01006E2B010010B5094C2378FF2B0A
:1024D0000DD0182009F0F6FD23780370192343600E
:1024E000183B03724372034B186006F03FF910BDAE
:1024F00059000020643200208A2110B5C900034829
:1025000006F08EF87D22024B1A8010BDE00F0020ED
:10251000F410002010B507F0FBFC074C2368C01A2C
:10252000064B1B88984205D907F0F2FC206004484E
:1025300006F0EEF810BDC046D40F0020F4100020C5
:10254000E00F002070B5050007F0E2FC040007F082
:10255000DFFC001BA84205D2012007F00FFDFFF7AA
:10256000D9FFF4E770BD02780023412A04D14378F3
:10257000543B58424341DBB21800704702780023B5
:10258000522A04D14378543B58424341DBB21800ED
:102590007047000010B5084C20780CF04BFE002866
:1025A00008D0611C20000DF04FFC044A1378013B59
:1025B0001370F0E710BDC0467C070020E007002044
:1025C000D0B50D4C2300383318780CF0CDFC0B003F
:1025D00080210200C905002006F058FA0600606B51
:1025E0000F000CF0F3FC02000B00300039000BF080
:1025F0006BFA0CF03DFDD0BD60000020F0B585B059
:102600000400FFF7DDFF2E4D01902B003B331878BF
:102610000CF070FC00222B4B0AF03AFF06000198E8
:102620000F000CF0D3FC02000B00300039000BF05F
:1026300055FE0CF01DFD2B0038331E786400071C7E
:10264000A01B0B3080000CF055FC02900391300071
:102650000CF050FC00221C4B0BF040FE02000B0063
:10266000029803990BF030FA0CF002FD06F0C4F961
:102670002B003933041C18780AF080FE211C0AF064
:1026800067FB0021041C09F069FF002800D000242A
:102690008221201CC90509F0E9FF09F0B1FF80B2D1
:1026A0000AF06CFE01990AF053FB391C09F0DEFFB9
:1026B00006F0A2F909F0A4FF80B205B0F0BDC04653
:1026C00060000020000011400000104010B5074CD1
:1026D0003C342078FFF792FF0100FA20800009F0D7
:1026E00001FE2478C0B2604310BDC04660000020E7
:1026F000094A10B51088094CC11083104B40434063
:1027000041114B40012140101940DB03184380B2B6
:102710002170108010BDC046DE0F0020DC0F0020AD
:1027200070B505000E000024731E9C420FDAFFF7FF
:10273000DFFF310009F0BCFEA30089006918EB1827
:102740000A68186801340860E4B21A60ECE770BDEA
:102750000220034B1B889842804140427047C0468C
:10276000F010002070B5164C200005F0ABF80022E8
:10277000144B1A70144B45331A78144B002A17D097
:10278000134A1D681278022311002000994304297E
:1027900001D0082A0ED105F08BF80E4B8000196885
:1027A00040590AF007FC011C200003F087F970BDB6
:1027B00020001D6805F07CF880004159F4E7C04610
:1027C00010110020A80000206000002078070020E1
:1027D00058120020840D002010B5034804F0DBF9E6
:1027E0000123184010BDC046101100200E38C3B29E
:1027F0000320102B01D8014AD05C70474C2B0100FC
:10280000064B1888064B1B88984202D3C01A80B228
:102810007047802252018018F8E7C0465C12002001
:102820005E1200200020084B1B78834207D1074B23
:102830001888074B1B88984202D3C01A80B2704791
:10284000802252018018F8E7C00E00207C32002060
:102850007E320020064B1888064B1B88984202D314
:10286000C01A80B27047AF2292008018F8E7C046C5
:102870009E0A0020A00A0020064B1888064B1B88E1
:10288000984202D3C01A80B27047AF2292008018DB
:10289000F8E7C0465E0D0020600D002010B5094B22
:1028A00001201A78FF2A0BD0074B44331B78002BEA
:1028B00006D0100007F0B8FD013843425841C0B2BD
:1028C00010BDC0464E00002060000020F8B5FFF7A4
:1028D00097FF144A13003C3319780B1C814200D92E
:1028E000031C3832127899B2062A03D1FC2900D988
:1028F000FC2399B2002217000B4B0C48C9B2197087
:102900000B4D03880B4ED4B2A14207D9F75C0133BB
:102910001B05AF541B0D01320127F4E7002F00D037
:102920000380F8BD60000020EB1000205E12002044
:10293000E80F00206112002010B5FFF761FF0B4C7B
:1029400023003C331B78834203D8FFF7BFFF0120ED
:1029500010BD002801D10020FAE707F0D9FA044B96
:102960001B68C01AE38F9842F5D3EEE760000020A1
:10297000C40E0020F8B5FFF77FFF164A13003C3362
:1029800019780B1C814200D9031C383212789CB292
:10299000062A03D1FC2C00D9FC239CB200250E4B47
:1029A000E4B21C702B000D4E0D4F3088EAB29442F9
:1029B0000CD9AF213B5C0B4A0130535580B28900E2
:1029C00009F08CFC013588B20123EFE7002B00D021
:1029D0003080F8BD60000020EB100020600D00206A
:1029E000A20A0020E80F002003220020034B1B78DE
:1029F000043BDBB29A424041C0B2704758120020FB
:102A0000F8B5134B05001B78002B08D101001148C5
:102A100007F0ABFD2900104807F0A7FDF8BD012B1A
:102A2000FCD100240D4E0E4F28000DF015FA844203
:102A3000F4D2AF2133888900581C80B230802A5DDF
:102A40000134FA5409F04AFCA4B23180ECE7C046E4
:102A50000F110020843800207C3500205E0D0020FE
:102A6000A20A002010B5FFF7CBFF0248FFF7C8FF0E
:102A700010BDC046E92D010010B50248FFF7F2FF76
:102A800010BDC046E62D010010B50248FFF7EAFF71
:102A900010BDC0463C2D0100F8B5FFF7A5FF061E8E
:102AA00015D00E4B0E4D1F7800231C002888A7421E
:102AB00010DDAF210B4B0C4AE35C8900135401304D
:102AC00080B209F00BFC013488B23300EFE7FFF766
:102AD000DBFFF8BD002BFCD02880FAE7E0070020E0
:102AE0005E0D00207C070020A20A00207FB50200B6
:102AF000044901A80DF07EF901A8FFF781FF07B096
:102B000000BDC0464C2D010010B5FFF7EFFF024895
:102B1000FFF776FF10BDC046E92D01007FB502002A
:102B2000102908D1064901A80DF064F901A8FFF7A2
:102B300067FF07B000BD0A29F8D10249F3E7C04694
:102B4000472D01004C2D010010B588B00C000CF091
:102B50003DFA220000900191044903A80DF04AF9C2
:102B600003A8FFF74DFF08B010BDC046422D01007D
:102B700010B5FFF7E9FF0248FFF742FF10BDC0465E
:102B8000E92D0100F0B5A74C85B0E368002B49D0D2
:102B900096221201934200D133E11ED8962B00D128
:102BA00029E10DD8282B39D0230040331B78002B86
:102BB00038D09D48FFF724FFE068FFF7A5FF31E01C
:102BC000C8225200934200D119E19622D2009342CA
:102BD000EAD1964B6363964B23E09622D20193424F
:102BE00000D112E10DD896225201934200D10AE1A0
:102BF000962292019342D7D18E4B6363E123DB008F
:102C00000FE0E122D201934200D102E196221202AA
:102C10009342C9D1874B6363874B02E0874B636361
:102C2000874B2387874F884D3B682800196802F03F
:102C300045FF0190A08C0026C0B2FFF7D7FD00220F
:102C400041B2280003F05EF90D3004D0019E0C362D
:102C5000731E9E41F6B2616B280003F043FB0830FF
:102C600000D10026230038331978280003F0D0FC67
:102C7000093000D10026230039331978280003F0E9
:102C80002FFD0A3000D1002623003A33197828009E
:102C900004F0BFF843425841230040423B33064012
:102CA0001978280004F0D3F8123000D10026230050
:102CB00038331B78062B00D0AFE0FF21280003F04B
:102CC0005AFD002800D000266049280003F096FD38
:102CD0005F49280003F09BFD5E4B1978FF2904D063
:102CE0005D4B28001A7803F0A1FD638E0293FFF775
:102CF00067FC23000022039031331B78019293423A
:102D00000ED002980AF03AFB039909F049FE09F047
:102D100077FC80B2031CFF2800D9FF239BB20193EC
:102D20006B462800197904F0B3FD434258414042F4
:102D300006400220FFF762FCA179050009F0D2FAF3
:102D4000464B2D181D80230040331B78002B45D0A7
:102D50004348FFF755FE3B6803211868FFF708FF5B
:102D60004048FFF74DFE606B0AF0E8FAFFF7CCFE33
:102D70003D48FFF745FE230038331878FFF7C4FEBF
:102D80003A48FFF73DFE230039331878FFF7BCFEC1
:102D90003748FFF735FE23003A331878FFF7B4FEC3
:102DA0003448FFF72DFE23003B331878FFF7ACFEC5
:102DB0003148FFF725FEFFF703FC0AF0BFFAFFF7E3
:102DC000A3FE2E48FFF71CFE0198FFF79DFE2C483E
:102DD000FFF716FE214B1888FFF796FE002E08D14C
:102DE0004034FFF751FE2378002B02D02548FFF72F
:102DF00039FE05B0F0BD114B6363234B11E70B4B5C
:102E0000FAE70C4BF8E70B4BE4E60A4B63631F4B06
:102E100007E7084B63631E4B03E7280003F0B1FC90
:102E20004FE7C04660000020EC2D01000000FA4290
:102E3000090800000000FA430605000000007A427D
:102E40000B0800007807002010110020FD20000072
:102E500009210000580000205C000020640D0020C3
:102E6000FF2D0100062E0100172E01002B2E010060
:102E70003D2E01004D2E0100632E0100742E010035
:102E8000842E01009B2E01000A08000007070000A5
:102E90000606000010B50248FFF7B2FD10BDC0469F
:102EA000E92D010070B500265E4BF5B21B785E4837
:102EB000012B00D05D48FFF7A3FD5D48FFF7A0FDA3
:102EC0003000FFF713FE013D5A48FFF799FD5A48BD
:102ED000192D10D8280009F05DF90D26282A2C2E6E
:102EE00030323436383A3C3E40424446484A4C4EF2
:102EF000505254565148FFF783FD5148FFF780FD6B
:102F0000504C192D41D8280009F044F94345474950
:102F10004B5B5E6065686B6D6F727476787A817CEE
:102F20007E80838587894848E5E74848E3E7484845
:102F3000E1E74848DFE74848DDE74848DBE748483D
:102F4000D9E74848D7E74848D5E74848D3E748484D
:102F5000D1E74848CFE74848CDE74848CBE748485D
:102F6000C9E74848C7E74848C5E74848C3E748486D
:102F7000C1E74848BFE74848BDE74848BBE748487D
:102F8000B9E74848B7E74848B5E7A068FFF7AEFD9E
:102F900010E0E068FAE7207CF8E7607CF6E7A07CC8
:102FA000F4E700256319D87C10210135FFF7B6FD41
:102FB000102DF7D10136FFF76DFF1B2E00D073E700
:102FC00070BD0434E07FE1E7A08CDFE70321A06A55
:102FD000FFF7BAFDEEE70321E06AF9E73034207825
:102FE000D4E73134FBE7608ED0E70221606BEFE776
:102FF0003834F4E73934F2E73A34F0E73B34EEE7BB
:103000003C34ECE74034EAE74134E8E70434E08F4D
:10301000BCE74434E3E74534E1E74634DFE74734CF
:10302000DDE7C0460F110020402D0100042F0100F4
:10303000062F0100F42E0100092F0100152F0100B9
:1030400049300100600000201E2F0100242F0100E4
:10305000312F01003D2F01004B2F01005A2F01009D
:10306000622F01006F2F01007C2F01008D2F0100C6
:103070009A2F0100A72F0100B12F0100BE2F0100E0
:10308000C92F0100D22F0100E12F0100EB2F010019
:10309000F82F0100FE2F0100033001001430010061
:1030A00020300100293001003E300100F0B5574EBC
:1030B00085B03068002801D00CF0DEF8544C2300B5
:1030C00030331D78A8000CF0CDF8E36A306003932C
:1030D000A36A0090191C0398019309F06BFF041C6C
:1030E000A81C0AF04BF9011C201C09F059FCFC211A
:1030F0008905029009F02CFE019909F0B7FA002425
:10310000061CA5420DDD20000AF038F9029909F0ED
:103110001FFE311C09F0AAFA009BA700D851013408
:10312000EFE73B4C267CE368608E9E193018667C86
:10313000231DA77C3618D87FF6198619019809F047
:103140005FFA8619039809F05BFA23003133861978
:10315000187876198619606B09F052FA2300383313
:1031600080191E782B4A301880B21080002F08D0AA
:103170000023E118CE7C0133801980B2102BF8D1E6
:10318000108029000098FFF7CBFA0025FFF7B0FA6E
:10319000214EA85501350C2DF8D1230040331B7862
:1031A000002B30D01D48FFF72BFC03210298FFF7BE
:1031B000DFFC1B48FFF756FC0025230030331B784B
:1031C000AB4210DD2800FFF791FC1648FFF718FC12
:1031D0000E4BAA001B680321D058FFF7B5FC013540
:1031E000FFF758FEE9E71048FFF70AFC00240F48F4
:1031F000FFF706FC305D10210134FFF78FFC0C2C2B
:10320000F5D1FFF747FE05B0F0BDC04678070020B6
:1032100060000020DE0F00205C030020BE2E0100B5
:10322000CF2E01002C2D0100DE2E0100E62E010024
:1032300010B5244B244C403320701B78002B10D049
:103240000E2837D808F0A6FF0810120E14242622E4
:10325000282C2A322E3034001C48FFF7D1FBFFF710
:1032600019FE10BD1A48F8E71A48F6E71A48F4E7BD
:103270001A48FFF7C5FB1A4B1A481C6804F018FBE4
:10328000800003210059FFF75FFCE8E71648F0E7EC
:103290001648EEE71648ECE71648EAE71648E8E76E
:1032A0001648E6E71648D8E71648D6E71648D4E7A2
:1032B0001648D2E71648FFF7A3FB2078FFF716FC65
:1032C000CDE7C0466000002058120020782B010096
:1032D0009B2B0100BC2B0100DA2B0100F42B010019
:1032E00078070020101100200E2C0100262C010070
:1032F0003B2C01004C2C0100682C0100822C0100A9
:10330000992C0100AE2C0100C92C0100E92C010010
:10331000052D010070B50C4C050020000E0004F0D6
:1033200081FE0A4902001331200004F085FE0C22C0
:103330000749200004F04AFF33002A00290020003A
:1033400004F090FE70BDC046880D00206000002093
:103350005C03002070B50C4C050020000E0004F04A
:1033600061FE0A4902001331200004F065FE0C22C0
:103370000749200004F02AFF33002A00290020001A
:1033800004F0CCFE70BDC046880D00206000002017
:103390005C0300200122F0B5FF2300241700A5B232
:1033A000A94213D9055D94465D400555082566463A
:1033B0005A115A40F6015B10013D3A403343EDB2D9
:1033C000DBB29446002DF2D10134E8E7F0BD0000F5
:1033D00070B50D4C05002078FF2814D00B4B4033FE
:1033E0001B78002B0FD0002106F0F2FF002D06D035
:1033F00030200321684308F0EBFE0138FDD120782E
:10340000012106F0E5FF70BD5A0000206000002099
:10341000F8B5254B254E1D6833004533244C1B78E9
:103420002000002B19D004F043FA224B80001968C9
:10343000405909F0BFFD011C0025200002F03EFBB1
:103440001D4B1D70330038331B78062B0AD905221B
:103450002900200003F0F4FFF8BD04F029FA8000F1
:103460004159E9E7154F3B78002B10D0737C002BB6
:103470000DD00221200003F07EF905220221200058
:1034800003F0DEFF4B20FFF7A3FF3D70E4E7FF21D1
:10349000200003F070F90522FF21200003F0D0FF87
:1034A0006420FFF795FFD7E7780700206000002031
:1034B00010110020840D0020A8000020810D0020A4
:1034C00070B50D000DF087FBC4B228000DF083FB32
:1034D0002300303BDBB2C2B2092B06D92300413BAB
:1034E0000020052B10D8373CE3B210003038C0B2B2
:1034F000092806D9110041390020052904D8373A96
:10350000D0B21B011843C0B270BD000010B504005A
:10351000124B0121187823000B401DD006F058FFF4
:1035200002210F4B21401878002900D0012106F01C
:103530004FFF04210B4B21401878002900D00121B6
:1035400006F046FF0821084B21401878002900D0DA
:10355000012106F03DFF10BD1900DFE751000020FA
:1035600052000020530000205400002010B500211C
:103570000E4802F051FE09F0E1FE0300040095330D
:1035800013DB0120FFF7C2FF230045330DDB0320CF
:10359000FFF7BCFF2300313307DB0720FFF7B6FF3F
:1035A000133402DB0F20FFF7B1FF10BD1011002014
:1035B00010B5054B01001878FF2804D0002900D071
:1035C000012106F005FF10BD5B00002010B5054B82
:1035D00001001878FF2804D0002900D0012106F04E
:1035E000F7FE10BD5700002070B504000D004269C1
:1035F0000169FEF701FE2A0021692000FEF7A2FD05
:1036000070BD000010B503780400002B01D1FEF757
:1036100005FE074BE25C002A08D00022E254054B6D
:103620000132E254211D0448FFF7DEFF10BDC04601
:103630000C04000004040000680D0020482370B54D
:10364000124D134C2B802378002B02D12000FEF763
:10365000E5FD0023E95CE21801331171482BF9D133
:103660000C4BE25C0C4B002A0CD00022E2540B4BBA
:1036700001320B490B48E254FFF7B6FF2000FFF779
:10368000C1FF70BD0122E254F8E7C046600000208F
:10369000680300200D0400000C0400000404000076
:1036A0006C030020680D002070B5424C05004822D4
:1036B000414920000BF00BFE002D00D16EE03F4B86
:1036C0001B78112B25D100233D4AD05CE118013332
:1036D000C874102BF9D1137C2374230040331B785A
:1036E000002B16D03748FFF78BF900256319D87CDB
:1036F0001021FFF713FA01353348FFF781F9102D38
:10370000F4D1FFF7C7FB3148FFF77AF9207CFFF7C8
:10371000FBF9FFF793FFFFF7C9FCFFF733FAFFF759
:1037200077FE0020FFF7F2FE6420FEF70BFF092072
:10373000FFF7ECFEFA204000FEF704FF0620FFF73B
:10374000E5FEFA204000FEF7FDFE0F20FFF7DEFE4B
:10375000FA204000FEF7F6FE0020FFF7D7FEFA2021
:103760004000FEF7EFFE0F20FFF7D0FE1848FEF7EF
:10377000E9FE0020FFF7CAFEFA20C000FEF7E2FED5
:10378000637C0020002B00D10820FFF751FD0022B0
:10379000104B11481A70FFF765F970BD0F496A5C4C
:1037A00063190135DA74102DF9D10D4B1B78237490
:1037B000AFE7C0466000002004000020D00F0020CA
:1037C000CC0E00201C2D0100A0430100262D01007D
:1037D000DC050000601200202F2D0100683200205F
:1037E0007832002070B5037804000D001600002B1D
:1037F00001D1FEF713FDABB2E3181B790135ADB271
:103800003370641923793000737070BD002373B571
:10381000204C01932378002B02D12000FEF7FEFC00
:10382000227901AB1A7062795A70A2799A70E279A2
:10383000DA70019B013301D1FFF700FF00256B46D1
:103840006A46290020001D80FFF7CCFF6B461B88CD
:10385000482B01D0FFF7F2FE6B469E1C320002217E
:1038600020005D80FFF7BEFF3388102B01D0FFF7EB
:10387000E5FE2378002B02D12000FEF7CFFC0023C9
:10388000054AE118097999540133482BF9D1FFF71A
:10389000D5FE73BD6803002060000020812270B552
:1038A000D20011491148FEF735FC00210120104BD0
:1038B000104A19709954104A9854104802F0F4F8BC
:1038C0000F4C200004F086FD0E4D0F4B28002360A6
:1038D00004F04CF965600D4A0D4920000BF06AFCBC
:1038E0000C4804F09BFE70BD00310100680D002003
:1038F000680300200C0400000D04000010110020DB
:10390000880D0020000E0020D02A010000000020B9
:10391000E9550000E00F002070B58420DAB008F00F
:10392000D1FB040059485A4B00785A4A5A4908AD0D
:103930001B78127809780090200001F0C3FE210066
:10394000280002F0B1F8554C6B6810226360AB6838
:10395000FF32A3602B7B23736B7B6373AB7BA373FF
:103960000F23E95CE15401339342FAD123004C9ACE
:10397000FC3318215A614D9A02A807929A612200DD
:10398000FF310918497EFF3251764F9A07921A6229
:1039900090225200A95CA154519A9A62529ADA621A
:1039A000539A07921A6398225200A95CA1543222BA
:1039B000FF32A95CA154559A07929A639C22520047
:1039C000A95CA1543A22FF32A95CA154579A0792EC
:1039D0001A64589A5A64A2235B00EA5CE2544623B4
:1039E000FF33EA5CE2540133EA5CE2544823FF33DC
:1039F000EA5C2B4DE254AE6AE86A311C09F0DAFA4F
:103A0000FC21890509F0A4F9011C301C08F02EFEE8
:103A10000023049308330393023302930833019382
:103A20000B3B011C00931F4A0233200002F066F892
:103A3000061E0BD01C48FEF7E3FF3000FFF764F8CA
:103A4000FEF768FD642006F099FAF9E7200003F01C
:103A5000B7FA040008F0F8FA2B0040331B78002B6B
:103A600005D01248FEF7CCFF2000FFF74DF8FFF716
:103A70001DFBFFF787F8FFF7CBFC6B7C0020002BCA
:103A800000D10820FFF7D4FB5AB070BD50000020D1
:103A9000550000204F0000204D0000201011002094
:103AA000600000200000FA426C3001008A30010002
:103AB000F8B51A4803F084FA08F0C6FA802100200D
:103AC000490008F0D2FA80270024154E7F0030709C
:103AD0003900002008F0C9FA124D60550134102C4D
:103AE000F6D1114B40331B78002B15D00F48FEF751
:103AF00087FF3078FFF708F80D48FEF781FF0024B4
:103B00000C48FEF77DFF285D10210134FFF706F811
:103B1000102CF5D1FFF7BEF9F8BDC04610110020FA
:103B20007832002068320020600000204B30010015
:103B300058300100E62E010010B5040001000448D1
:103B400007F092F82100034808F064F810BDC04661
:103B5000843800207C350020E12010B50002FFF7FA
:103B6000EBFFFFF753FE084B986880B2FFF7E4FFC6
:103B7000FEF774FBFFF7D0FEFEF7A6FCFEF7BCFCD9
:103B80000248FEF76FFF10BD6000002020360100E4
:103B900070B53A4CC0B0FF226946200003F012FE17
:103BA0002000012102F07CFF354E0500331DDB7F34
:103BB000C4B2002B03D0A1B26846FFF7EBFBB37C85
:103BC000002B03D021006846FFF7C4FB012C3BD932
:103BD000E8B26844421E15782A4A831E15703200E6
:103BE000383212781B78062A05D1022C03D003380C
:103BF0000478013CE4B2327C9A4203D0737C012009
:103C0000002B22D10E232B401800022B1DD0023C8A
:103C1000E4B2EB070BD51C4B1A78A24207D16946D8
:103C20001A480BF045FB03000320002B0DD0102693
:103C30002E40002C10D10A20002E06D10638054255
:103C400005D00230AB0700D4002040B070BD08237F
:103C50001D42FAD01800F5E7220069460B480BF028
:103C600036FB094B0B201C70002EEED104386B077D
:103C7000EBD402382B07E8D50430E6E7101100201A
:103C80006000002059120020D00F0020CC0E002030
:103C9000F7B52D4D2D4E29782D4C7318207C9A1E8A
:103CA00010702C4A013B12781A70D3070DD4A37CF4
:103CB000002B02D03000FFF72DFB231DDB7F002BF4
:103CC00003D029783000FFF765FBE122E368D201D9
:103CD000934203D096221202934202D1022006F0B0
:103CE0004DF91D4B1D4F1B683800019303F0E0FD9B
:103CF000019B8000C158380001F0E0FE2A780023C3
:103D00003100380003F0A2FC002818D1144E33789B
:103D1000002B01D0FEF726FD2878FEF76FFCA17975
:103D2000050008F0DFFA0F4B0F4A2D181D8013789D
:103D3000013313703378002B01D0FEF713FD06F02A
:103D4000E7F80A4B1860F7BDEB100020E80F0020E1
:103D5000600000205A120020780700201011002077
:103D6000A8000020E8100020EA100020EC1000203D
:103D70000221E2200D4A10B513788B4303401370E3
:103D80000B4A0C4B1170002119700B4B38331B7808
:103D9000062B05D1094B0331FC331970FF23137037
:103DA0000122074B1A70FFF773FF10BD5A12002053
:103DB000EB100020EA10002060000020E80F002037
:103DC000810D0020E02100200D4A10B513780B4032
:103DD00013700C4A1378991C11700B4908700B4929
:103DE00038310978062905D109490333FC310B70B4
:103DF000FF2313700122074B1A70FFF749FF10BD14
:103E00005A120020EB100020EA1000206000002071
:103E1000E80F0020810D002002221020064910B575
:103E20000B789343013A134383430B70034B1A708F
:103E3000FFF72EFF10BDC0465A120020810D002052
:103E40000222E220074910B50B78134303400B70A0
:103E5000054B1A700023054A1370054A1370FFF7CB
:103E600017FF10BD5A120020EB100020EA100020AE
:103E7000810D00200220012110B50A4C23788343D4
:103E80008B431A0010231343F322134000222370A4
:103E9000054B1870054B1A70054B1970FFF7F8FEAB
:103EA00010BDC0465A120020EB100020EA1000207E
:103EB000810D0020F0B5482495B02200244902A8C5
:103EC0000BF005FA234F02A9220038000BF0FFF98E
:103ED0003A000023313213707B740E33BB84FFF73A
:103EE000E5F8FEF74FFE3B00BC6A30331D781A4BF5
:103EF000211CF86A1E6809F05DF8071CA81C09F06F
:103F00003DFA011C381C08F04BFD012701902900E7
:103F1000380008F0CDFA080009F030FA011C0198C9
:103F200008F016FF211C08F0A1FB3060FFF7A2FF8C
:103F30001320FEF763FB0122084B52421880084B06
:103F40000C201F60074B1A60FFF772F915B0F0BD27
:103F5000042B01006000002078070020E8100020FA
:103F6000B0000020AC00002010B5482203490448EE
:103F70000BF0ADF9FFF79EFF10BDC04660000020BA
:103F80000400002010B5482492B02200064968467B
:103F90000BF09DF92200694604480BF098F9FFF7F1
:103FA00089FF12B010BDC046042B010004000020A0
:103FB00070B5344D286800282ED004F0F6FB324C42
:103FC0002378002B29D1FA212868C90004F019FCB4
:103FD000002822D00123237005F09AFF2B4B186094
:103FE0002378012B43D105F093FF284C2368C01A96
:103FF000FA235B0098420FD92549264806F0C2FAF9
:1040000005F086FF244B2060187806F00DFA012891
:104010002BD10020FFF77AFA70BD2378012B17D03F
:104020002378012B06D11D49286804F0EAFB0223FE
:10403000002818D12378022BD2D1286804F0DAFBAB
:104040000028CDD00F20FFF761FAFFF79BFF09E0B2
:10405000286804F0CFFB0028E2D00F20FFF756FAC3
:10406000FFF782FF00232370BAE70F20D2E7022B6D
:10407000D2D105F04DFF054C2368C01A6428CBD976
:10408000BEE7C0466432002079320020D80F0020FD
:10409000D02D01008438002051000020881300003A
:1040A000FC220F4910B50B780E481A401023134319
:1040B000F02213400B7000230B4A195CD1540133DA
:1040C000102BFAD1094B1B7813741322084B1A706A
:1040D0000023084A1370084A1370FFF7D9FD10BD7A
:1040E0005A12002068320020E80F002078320020A9
:1040F000EB100020EA100020810D00200221EE22AA
:10410000094810B503780B431A40042313430822CF
:1041100093430370054B064A197000231370054A38
:104120001370FFF7B5FD10BD5A120020EB100020F0
:10413000EA100020810D0020EC22104900200B78AD
:1041400010B51A4004231343082293430C4A0B7002
:104150001378991C11700B4908700B493831097894
:10416000062905D109490333FC310B70FF23137075
:104170000122074B1A70FFF78BFD10BD5A12002069
:10418000EB100020EA10002060000020E80F002063
:10419000810D00200221EA22084810B503780B4364
:1041A0001340E23A13430370054B064A197000238B
:1041B0001370054A1370FFF76BFD10BD5A120020F3
:1041C000EB100020EA100020810D0020E8220F49AA
:1041D00000200B7810B51A40082313430C4A0B70CB
:1041E0001378991C11700B4908700B493831097804
:1041F000062905D109490333FC310B70FF231370E5
:104200000122074B1A70FFF743FD10BD5A12002020
:10421000EB100020EA10002060000020E80F0020D2
:10422000810D0020F8B5B34B18780E2801D900F0A5
:1042300064FC07F0C3FF0F00450060008400A2008B
:104240000B011E017D01B50207031A030704DC03FD
:10425000E7033204A84D2B78002B03D000232B70EA
:1042600003202AE0A54B1C78E4B2002C02D0FEF714
:1042700079FAF8BD05F04CFEFA21A14B89001F68C0
:10428000A04BC71B04332000DE8F07F0EEFE36186C
:10429000B74203D89C4B1B78002BEAD1FEF79CFA5F
:1042A000061EE6D146200124FF30FFF791F8964B19
:1042B0001C70FFF75DFD2E702000FEF7B9FFD8E7F8
:1042C0008D4B1A78002A00D1C9E200221A708F4B58
:1042D0001C7894420BD1AF204000FFF779F88C4B4B
:1042E0001C80FFF743F9FFF793F80420E5E7FFF799
:1042F0008FF80220E1E7804B1A78002A02D00022D2
:104300001A70ADE77D4B1C78E4B2002CAFD105F0FC
:10431000FFFD7B4B7F4A1B681288C01A7E4B1B88AF
:104320009B189842A5D97D4802F04AFE07F08CFE02
:10433000C8204000FFF74CF8FFF76AF8BCE7FFF72A
:1043400027FC012803D8FFF763F80020B5E702280F
:1043500003D100226E4B1A80C3E7032803D1FFF775
:104360006FFD0120A9E7042800D082E7AA20FF30D2
:10437000FFF72EF8FFF7FAF8F1E7FEF7E9F9051E67
:1043800003D00020FFF7C2F8DDE75B4C2378002B59
:1043900006D096204000FFF71BF8257007208CE719
:1043A000564B1C78E4B2002C00D060E705F0B0FD5D
:1043B000FA21534B89001E68524B861B04332000A0
:1043C000DD8F07F052FE2D18AE4210D9FEF704FA29
:1043D000002800D04DE7514802F0F2FD07F034FE0E
:1043E0007D20FEF7F5FFFFF7C3FC052065E7FEF72C
:1043F000F3F9002800D03CE7FEF702FA00280BD0C2
:10440000FEF79AFA002800D133E71420FF30FEF7B8
:10441000DFFFFFF7D7FCE8E7FEF72EFA002800D110
:1044200027E7FEF7A7FA1420FF30FEF7D1FF3C4C38
:104430002378012B07D1FFF7C9FEFEF71DFA0028EC
:10444000D3D12070D1E7FFF777FEF6E72A4B1A7831
:10445000002A00D103E200221A702C4B1B789342F1
:1044600003D0FEF7D5FF062027E79620FEF7B0FF22
:1044700039E7214B1A78002A21D0002207201A7030
:10448000FEF7D6FE05F044FD1D4B224A1B6812883C
:10449000C01A214B1B889B18984200D8E9E6194B9B
:1044A00047331A781F4B1B789A420FD2184A138849
:1044B000013313801C4A13880133138013E70F4B19
:1044C0001B78002BDED0FEF74DF9DBE7FEF784F911
:1044D000002809D1FA30FEF77BFF144A1388013314
:1044E0001380FFF799FC80E7FA204000FEF770FF89
:1044F000BFE6C046581200207A320020A8000020F3
:10450000EC1000206000002060120020810D0020CF
:10451000F0100020640D0020E81000201011002091
:104520000F110020EA10002062320020F21000205B
:10453000FFF72EFB04240300A343DBB2022B01D0C0
:1045400008284DD11920FEF743FFD94BD94C4633EB
:104550001B78002B23D0FEF79DFCD748FEF750FABE
:104560000021200001F058FE08F0E8FEFEF7BEFA38
:10457000D248FEF745FA200002F05EFA08F0DEFEAF
:10458000FEF7B4FACE48FEF73BFA0021200002F015
:104590008FF908F0D3FEFEF7A9FAFEF77BFC0025A1
:1045A000C84B1D80FEF7E2FF2900200002F080F9D1
:1045B000C54C051C20680AF009FD0600281C0F00E8
:1045C0000AF004FD0022C14B09F07EFA02000B0044
:1045D0003000390008F05CFF0AF04AFD206082E6F6
:1045E000032825D1BA48FEF7F3FE0024B54B1C8002
:1045F000FEF7BCFF2100AF4802F05AF9B24C051C8F
:1046000020680AF0E3FC0600281C0F000AF0DEFC1C
:104610000022AE4B09F058FA02000B0030003900BE
:1046200008F036FF0AF024FD2060FFF709FCDCE605
:10463000042801D1A748D6E7052840D19C4B463332
:104640001B78002B24D0FEF725FC9B48FEF7D8F9F9
:10465000984C0021200001F0DFFD08F06FFEFEF70E
:1046600045FA9648FEF7CCF9200002F0E5F908F08B
:1046700065FEFEF73BFA9248FEF7C2F900212000E2
:1046800002F016F908F05AFEFEF730FAFEF702FCC7
:10469000002701203A00904B90491E78904C0B88DF
:1046A000904D964207DDAF5C0132E75401331B05A4
:1046B0001B0D0700F5E7002F97D00B8095E7072823
:1046C0003BD1854B884D1F7800231C002888854EE0
:1046D000A7420CDDAF21335D844A890013540130B9
:1046E00080B207F0FBFD013488B20123F0E7002B14
:1046F00000D028800024734B1C80FEF737FF210078
:104700006C4802F0D5F8704C051C20680AF05EFC7D
:104710000600281C0F000AF059FC00226B4B09F020
:10472000D3F902000B003000390008F0B1FE0AF0A6
:104730009FFC2060FFF7E2FC57E609282ED10024F9
:10474000654B1B78A34206DD664B6948195D06F090
:10475000FBF90134F4E700245A4B1C80FEF706FFF6
:104760002100544802F0A4F8574C051C20680AF0B8
:104770002DFC0600281C0F000AF028FC0022534BD9
:1047800009F0A2F902000B003000390008F080FEA9
:104790000AF06EFC2060FFF7FDFC26E65548C9E5EF
:1047A000554C2378002B09D0DC20FF30FEF710FE9B
:1047B00000230A202370FEF73BFD05E04F4B1B78DA
:1047C000002B1DD0FDF7CEFF05F0A2FB4C4B4D4C4E
:1047D0001B68C01AA04229D805F09AFB4A4C2368EE
:1047E000C01AFA2800D844E505F092FB474B206038
:1047F000187805F019FE012816D1FEF787FE38E576
:10480000FDF7EAFF0028DFD1FDF7FAFF0028DBD033
:10481000FEF792F80028D7D0E1204000FEF7D8FD3F
:10482000FFF7D0FA0920C6E70220E6E705F070FBA3
:10483000374B1B68C01AA04202D8FEF797FE18E556
:104840000020DAE72C4B1A78002A08D000221A70D0
:10485000FEF7DEFD0820FEF7EBFC0120CDE7274B3D
:104860001B78002B00D104E501E5FFF791F9022840
:1048700050D100210F4802F01BF8134C051C206892
:104880000AF0A4FB0600281C0F000AF09FFB002280
:104890000E4B09F019F902000B003000390008F046
:1048A000F7FD0AF0E5FB2060FEF7B2FD082004E505
:1048B0006000002010110020EA2E0100ED2E010002
:1048C000F12E0100F0100020840D002080842E4184
:1048D000260200003F020000D00F00207C320020A2
:1048E00061220020CC0E00209E0A0020E10700205B
:1048F000843800200D0200007A320020A800002039
:10490000EC10002087130000C80E00205200002089
:10491000CC0F0020C31EDBB2012BAAD90528C3D1BE
:10492000784B46331B78002B24D0FEF7B3FA764839
:10493000FEF766F8754C0021200001F06DFC08F0D0
:10494000FDFCFEF7D3F87248FEF75AF8200002F09B
:1049500073F808F0F3FCFEF7C9F86E48FEF750F85C
:104960000021200001F0A4FF08F0E8FCFEF7BEF8EB
:10497000FEF790FA002701203A00674B67491E783E
:10498000674C0B88674D964207DDAF5C0132E754F8
:1049900001331B051B0D0700F5E7002F00D00B802E
:1049A000FEF7E4FD0021594801F082FF5E4C051C32
:1049B00020680AF00BFB0600281C0F000AF006FB1B
:1049C00000225A4B09F080F80B0002003900300039
:1049D00008F05EFD0AF04CFB2060FEF719FD082090
:1049E000FEF726FC05F094FA514B186041E4514B58
:1049F0001A78002A00D13CE400221A70FEF708FD64
:104A00000D205AE44B4B1A78002A04D000220E20C5
:104A10001A70FEF70DFC05F07BFA474B474A1B68FE
:104A20001288C01A464B1B889B18984201D8FFF782
:104A300020FC4448FEF7CCFCFFF73AF8FEF7E8FC10
:104A40000B203AE43B4B1A78002A03D000220E20B8
:104A50001A7032E405F05CFA3B4C2368C01A4B280C
:104A600001D8FFF706FC05F053FA2060374C2368A5
:104A7000D8B2FEF74BFD2368354A082B01D0012B35
:104A800002D11168494211601268002A03DD5B00FF
:104A90002360FFF7EEFB5B10FAE7FFF779F80A28CF
:104AA0001CD12C48FEF794FC00222B4B1A80FFF7F8
:104AB000F7FA204B1B78002B0BD105F029FA1E4B7F
:104AC0001E4A1B681288C01A1D4B1B889B189842EF
:104AD000EFD90020FEF7E8FDFFF7CBFB0B2807D14D
:104AE0001E48FEF775FC00221B4B01201A80F1E7DF
:104AF00096208000FEF76CFCA0E71948FDF7B2FF96
:104B0000FFF7B7FB60000020EA2E01001011002023
:104B1000ED2E0100F12E0100D00F00207C3200208C
:104B200061220020CC0E0020840D002080842E41C4
:104B3000CC0F00207A320020EC100020640D002001
:104B4000E8100020A3020000D80F0020B0000020D1
:104B5000AC00002071020000F01000208A0200006A
:104B6000F62E010010B504000100044805F0ECFF2A
:104B70002100034807F0E8F910BDC0468438002042
:104B80007C35002010B5034805F0EEFF024807F021
:104B900058F910BD843800207C350020F0B597B05E
:104BA000FEF778F9FDF7F6FCA64B1C78012C02D82D
:104BB000FDF76AFF0EE0A44D2800FDF7D4FC0700C6
:104BC0002800FDF7DBFC0600002F08D10028EFD0FD
:104BD000FDF762FF00239B4A137017B0F0BD002859
:104BE000F6D1022C02D1FDF747FFF3E7AB78032C97
:104BF00050D14F2B2AD018D8462B46D0492BD7D18D
:104C0000FDF73AFF9148FDF7FBFE9148FDF7F8FEEE
:104C10009048FDF7F5FE0120FDF768FF8E48FDF78F
:104C2000EFFE0020FDF770FFD4E7542B28D05A2B5D
:104C3000BED1FDF721FFFFF7A5FFBFF34F8F874BD5
:104C4000874ADA60BFF34F8FC046FDE7854B1B787C
:104C5000012B02D1844A1370C5E7FEF727FAFDF74E
:104C600091FF3000FEF752FC804B30005B7C002B44
:104C700000D10820FEF7DCFA00227D4B1A70B2E763
:104C8000FDF7FAFEFFF770F9A4E7FDF7F5FEFFF771
:104C900079F99FE7492B39D1042C00D088E7E878CF
:104CA0003038072800D983E707F06AFA0407B511FE
:104CB000181C1F2CFEF7F6F88CE76448FDF7A0FEE1
:104CC0006348FDF79DFE6B48FDF79AFE82E70021E1
:104CD000694801F0A1FA08F031FBA3E7664802F049
:104CE0006FF99FE7FDF7F2FC9CE700245F4B102172
:104CF0001B19D87C0134FDF711FF102CF6D1FEF7FB
:104D0000C9F867E75C4802F0D3FD8BE7262B20D17A
:104D1000042C13D1EB78462B05D0572B00D047E756
:104D2000FEF78CFC5FE74822544904A80AF0CFFA4A
:104D3000482204A94D480AF0CAFAF1E75049280070
:104D40000BF078F8002800D032E7484B01224633B8
:104D500094E7532B00D02BE72B793F2B03D06A79B4
:104D60003F2A00D0B5E0E8783038092800D91FE79D
:104D700007F010FA050841919497A2A6A9AC3B4B05
:104D800098684FE7303B18000F2B00D910E707F069
:104D90000BFA130017001A001D0020002300260044
:104DA00029002C002F000FFF0FFF0FFF0FFF0FFF39
:104DB00010002E4BD86835E72C4B3033187831E78C
:104DC0002A4B3133FAE7294B588E2BE7274B586B88
:104DD00081E7264B3833F1E7244B3933EEE7234B99
:104DE0003A33EBE7214B3B33E8E7204B3C33E5E735
:104DF0001E4BD88F16E7303B18000F2B00D9D7E693
:104E000007F0D2F91300160019001C0040004300FF
:104E10004600D6FED6FED6FED6FED6FED6FED6FE80
:104E2000D6FE1000114B187CFCE6104B4033C5E752
:104E30000E4B4133C2E70D4B0433DAE70B4B4433DF
:104E4000BCE7C046E00700207C0700204F2D010092
:104E5000F6100020642D0100BC2E010000ED00E0E2
:104E60000400FA050F110020620D002060000020F0
:104E7000C00E0020E92D010010110020042B0100BC
:104E8000672D0100B34B453398E7B24B463395E7A6
:104E9000B04B473392E7AF4B587CC3E6AD4B987CA1
:104EA000C0E60024AB4B10211B19D87C0134FDF760
:104EB00035FE102CF6D18DE6A64B0433D87FB1E633
:104EC000A44B988CAEE6A34B986A04E7A14BD86A32
:104ED00001E73D2B02D03D2A00D069E6290004A855
:104EE0000AF0B2FF9C4C04A821000BF01FFE210029
:104EF00000200BF01BFE03A901900BF005FE06003D
:104F00000F0009F0C1FF0400E8783038092800D903
:104F10004EE607F053F90A002E00450197019F0164
:104F2000A701BD01C601CE01E80196231B019C42E9
:104F30001CD096235B019C4218D096239B019C4277
:104F400014D0E1239B019C4210D09623DB019C42AC
:104F50000CD096231B029C4208D0E1231B029C42EA
:104F600004D0E1235B029C4200D021E6794B9C6097
:104F700039E6287930380D2800D919E607F014F9F8
:104F80004000480050005900B700C000CA00D000DF
:104F9000D800E00018FE18FE18FE0E00002C24D0E9
:104FA000282C22D0962C20D0C8235B009C421CD0F9
:104FB0009623DB009C4218D096231B019C4214D000
:104FC00096235B019C4210D096239B019C420CD0FF
:104FD0009623DB019C4208D0E123DB019C4204D0F4
:104FE00096231B029C4200D0E2E55A4DEB68002B51
:104FF00004D1002C02D05948FDF734FDEC60F2E5F5
:10500000631E312B00D9D3E5524B30331C70EAE5D7
:10501000012C00D9CCE501231C404E4B3133F5E780
:1050200023004F4A0A3B934200D9C1E5494B5C86B5
:10503000D9E5484BDB68002B03D04A48FDF712FD49
:10504000B6E50022484B3000390009F047F900224C
:10505000464B04000D0007F041FA002840D1444AB5
:10506000444B3000390007F039FA002838D10022CB
:10507000414B2000290007F031FA002830D10022EE
:105080003E4B3000390007F029FA002828D13C4A6D
:105090003C4B3000390007F021FA002820D10022D3
:1050A000394B3000390007F019FA002818D10022D6
:1050B000364B3000390007F011FA002810D10022D9
:1050C000334B3000390007F009FA002808D10022DC
:1050D000304B3000390007F001FA002800D167E5B5
:1050E0003000390009F0C4FF1A4B58637BE5194BB7
:1050F000DA68002AA1D1A21F3833062A86D957E5DB
:10510000144BDA68002A98D1621F3933032A00D879
:105110007CE74DE5FF2C00D94AE50E4B3A3375E7A5
:105120001D4AA31F934200D942E50A4B3B336DE76A
:105130002300103BEE2B00D93AE5064B3C3365E7E4
:105140002300164A0A3B934200D931E5014BDC8724
:1051500049E5C0466000002049300100712D010082
:10516000F5FF0000B92D01000000594000409040BB
:105170003333333333332F400040A04000403F40AF
:105180009A99999999D9444000404F4000405F4016
:1051900000406F4000407F40F9FF0000C60700005C
:1051A000287930380D2800D902E506F0FDFF1400FB
:1051B0001C0024002D0035003D00450001FD01FDCF
:1051C00001FD01FD01FD01FD0E00FF2C00D9EFE402
:1051D000524B1C7407E5012C00D9E9E401231C4063
:1051E0004E4B403312E7012C00D9E1E401231C406F
:1051F0004A4B41330AE72300494AFA3B934200D91C
:10520000D6E4464B0433A2E7012C00D9D0E40123B5
:105210001C40424B4433F9E6012C00D9C8E4012379
:105220001C403E4B4533F1E6012C00D9C0E401237C
:105230001C403A4B4633E9E6FF2C00D9B8E4374B23
:105240004733E3E6012C00D9B2E401231C40334B81
:105250005C74C8E4012C00D9AAE401231C402F4B44
:105260009C74C0E401980AF0F7FD202800D09FE468
:1052700000242A4D019B1B195978019B185DFEF7EC
:105280001FF96310EB180234D874202CF2D1AAE471
:10529000012C00D98CE401231C40204B0433DC7723
:1052A000A1E423000E3B102B00D981E41B4B9C840E
:1052B00099E400221B4B3000390007F033F9002835
:1052C00000D175E4154CE06A09F080FE32003B0025
:1052D00007F028F9002800D16AE43000390009F00D
:1052E000C7FEA0627FE40D4CA06A09F06FFE320099
:1052F0003B0007F003F9002800D159E400220A4BD3
:105300003000390007F0FAF8002800D150E43000EE
:10531000390009F0ADFEE06265E4C046600000209F
:1053200005FF000000308C4000008D4070B50B4D33
:10533000280005F013FC041E04D0280005F036FCFC
:10534000C0B270BD064D280006F088FD03002000A5
:10535000002BF6D0280006F051FEF1E7843800203B
:105360007C350020864BF7B51B78002B34D1854E59
:105370003478E4B2002C2FD1FDF754FA00282BD05A
:10538000FDF78CFA002827D00120FEF711F9FDF770
:1053900049FAA0421DDDFDF7BDF8794B1B78002BC3
:1053A00017D13378002B01D0FDF7DCF9FDF776FA41
:1053B00000280ED0744D754A2B880134D05CFFF75D
:1053C000D1FBFFF7DFFB2B8801331B051B0D2B8067
:1053D000DDE70020FEF7ECF86D4805F0BFFB002884
:1053E00009D0674B1B78002B0BD0FDF733FA002850
:1053F00000D09BE0F7BD674806F030FD0028F0D1F3
:10540000F3E70120FEF7E2F8FDF784F85D4B1B7827
:10541000002B01D0FDF7A6F9FDF7F2F95E4B020073
:1054200018785E4B9A421ED1FF2805D05C4B0021B4
:1054300044331B78002B1ED1FFF778FF594B050032
:105440001B780093002B2CD00D2817D1564B1B78BE
:10545000002B15D00022554B1A70FFF79FFB002040
:10546000FEF7B4F8B8E7FF28E6D04D4B44331B787D
:10547000002BE1D0012104F0ABFFDDE70A28EED0DC
:105480002800FFF76FFB28000BF0A5FB464C484AAD
:1054900023786421D0540133D8B206F01FFF217065
:1054A000DDE73F4C434F2379434E019383420CD1B8
:1054B00004F02EFD3B68C01AFA23DB0098421AD88C
:1054C00004F026FD3D4B984215D904F021FD6B46B2
:1054D0001B783860337041342378002B02D02800C9
:1054E000FFF740FB364A37491388CD5401331B057B
:1054F0001B0D1380B3E733780133DBB2337062796D
:105500009A42E8D141342378002B02D00198FFF76A
:1055100029FB2D48FDF7A6FA0123224A1370002328
:10552000337004F0F5FC234B186063E71D4B1B78C8
:10553000002B00D05EE71D00244F1B4AC4B21C4E56
:1055400038881470AC420CDDAF21214B89001B5C04
:105550000130735580B206F0C1FE013588B20123D7
:10556000F0E7002B00D038803378522B00D041E791
:105570000122113B33700D4B1A70FFF70FFB39E717
:105580007A320020A80000207E3200206122002014
:10559000843800207C35002056000020FF0F0000DA
:1055A00060000020C00E0020E00700200F11002046
:1055B0007C070020C40E0020800D0020CF070000D3
:1055C0005C12002061120020E42D0100A00A0020DE
:1055D000E107002010B5FCF79DFFFEF7E9FCFFF79F
:1055E000C1FEFEF71FFE10BD10B50400044B0360A2
:1055F000783002F061FA200002F08EFE200010BD2B
:10560000D02A010010B50400FFF7EEFF200006F0DD
:105610005DFD200010BD10B5002806D03023032109
:10562000584306F0D5FD0138FDD110BD012210B55B
:10563000016CC36B0A40002B01D1002A06D049102F
:105640004018002A01D00268D358984710BD70B5A1
:105650000124856C426C03002C40002A02D1FF20FB
:10566000002C06D068101818002C01D003689A5836
:10567000904770BD012210B5016DC36C0A40002B2C
:1056800001D1002A06D049104018002A01D0026832
:10569000D358984710BD012210B5816D436D0A4063
:1056A000002B01D1002A06D049104018002A01D051
:1056B0000268D358984710BD10B5C06E02F078F953
:1056C00010BD000010B54366029B026683661F4B47
:1056D0000200036700231E4C7032C16504805371C1
:1056E000137153720122011D5242C267CA67194ADF
:1056F0000121C266020078321170174A4260174ACF
:10570000C260174A8260174A0261174A4261174A0B
:105710008261174AC261174A0262174A8363426272
:10572000164A03648262164A8364C262154A03659C
:105730000263154A83654263144AC263144A426491
:10574000144AC264144A426510BDC04680841E00DB
:105750000080FFFF8032002039A3000029A4000050
:10576000D1A3000045A9000029A90000A99C0000C0
:10577000D99D0000AD9F00007D9F000017560000DE
:10578000119F00001D9F0000B95600002D5600001B
:105790004F560000755600009756000003000800A1
:1057A00010B5411C04D05B68002B01D01100984754
:1057B00010BD0300080010B5411C04D09B68002BED
:1057C00001D01100984710BD10B50400C16D012231
:1057D000FFF7E4FF0122E16D2000FFF7EAFF23005D
:1057E00078331B78002B08D0A26B636B5010201805
:1057F000D20701D50268D358984710BD10B50023D1
:105800004A1C05D0C268131E02D00800904703004E
:10581000180010BD10B5040008001100421C04D08F
:10582000A469002C01D01A00A04710BD036A10B56E
:10583000002B00D0984710BD436A10B5002B01D053
:105840000800984710BD036B10B5181E00D098478C
:1058500010BD10B5016F426FC06E02F0D9F810BDD7
:1058600010B5C06E02F004F910BD10B5C06E02F0A4
:10587000EBF810BDF7B504000E001F0008AB20CBFD
:1058800001921B780093FFF7E4FF0022E16D2000F6
:10589000FFF78FFF019920003143FFF7E1FF6378A5
:1058A000B3420CD1002F1BD03D00009AEB1B9A4253
:1058B00016D929782000FFF7D3FF0135F5E72378C3
:1058C000B3420DD1002D0BD02E00009A731B9A42CB
:1058D00006D900212000FFF7C3FF30700136F4E73E
:1058E0000122E16D2000FFF764FF2000FFF7BDFFFC
:1058F000F7BD13B50C00019200930178002322003C
:10590000FFF7B8FF13BD30B50F240023012585B084
:105910006C4423700A00017801950094FFF7AAFFF8
:10592000207805B030BD70B515001C00072A0FD8CF
:10593000072B0DD89A420BD3FFF7E5FFFF23072271
:105940001900521B1141A3400B401840C0B270BD5A
:105950000B204042FBE713B50C0001930023417874
:10596000009313002200FFF785FF13BD1FB50F231F
:105970006B441A7001220C000192002241780092BF
:105980002200FFF777FF1FBDF0B585B01E000AAB00
:105990001F780BAB1B78050002930CAB1B780191B1
:1059A00014000393072E30D8072F2ED8BE422CD3D5
:1059B000FFF7A9FFFF2208211300CF1B01363A4150
:1059C000B3401343DB43DBB298431C400443E4B2CF
:1059D000220001992800FFF7C9FF2800FFF733FFD5
:1059E000FA260700029BB6005E432800FFF72BFF54
:1059F000C01BB0420CD201992800FFF784FF039B23
:105A000060401840F1D105B0F0BD0B204042FAE7EC
:105A10001020FBE710B5C06E01F0F2FF10BD0300CF
:105A200010B578331B78002B04D0C36E002B01D047
:105A3000FFF7F0FF10BD3322030900011843C0B285
:105A400083108000904313400343DBB2223258108E
:105A50005B00104093431843C0B27047030070B519
:105A600001251600040079331D70031DC167DA6734
:105A70002A00FFF793FE2A0031002000FFF78EFE78
:105A800070BD030070B579331B7804001500002B3E
:105A900009D00A00C16FFFF78CFE231D2A00D96FC1
:105AA0002000FFF786FE70BD10B5040000F016FA66
:105AB000014B2000236010BD2C36010070B50D1C79
:105AC00004000C49281C06F067FD00280ED00A4986
:105AD000281C06F04DFD002808D0291C200001F0EC
